{
  "_format": "hh3-artifact-1",
  "contractName": "Voting",
  "sourceName": "contracts/Voting.sol",
  "abi": [
    {
      "anonymous": false,
      "inputs": [
        {
          "indexed": false,
          "internalType": "address",
          "name": "voter",
          "type": "address"
        },
        {
          "indexed": false,
          "internalType": "uint256",
          "name": "candidateId",
          "type": "uint256"
        }
      ],
      "name": "Voted",
      "type": "event"
    },
    {
      "inputs": [
        {
          "internalType": "string",
          "name": "_name",
          "type": "string"
        }
      ],
      "name": "addCandidate",
      "outputs": [],
      "stateMutability": "nonpayable",
      "type": "function"
    },
    {
      "inputs": [
        {
          "internalType": "uint256",
          "name": "",
          "type": "uint256"
        }
      ],
      "name": "candidates",
      "outputs": [
        {
          "internalType": "uint256",
          "name": "id",
          "type": "uint256"
        },
        {
          "internalType": "string",
          "name": "name",
          "type": "string"
        },
        {
          "internalType": "uint256",
          "name": "voteCount",
          "type": "uint256"
        }
      ],
      "stateMutability": "view",
      "type": "function"
    },
    {
      "inputs": [],
      "name": "candidatesCount",
      "outputs": [
        {
          "internalType": "uint256",
          "name": "",
          "type": "uint256"
        }
      ],
      "stateMutability": "view",
      "type": "function"
    },
    {
      "inputs": [
        {
          "internalType": "uint256",
          "name": "_candidateId",
          "type": "uint256"
        }
      ],
      "name": "getVotes",
      "outputs": [
        {
          "internalType": "uint256",
          "name": "",
          "type": "uint256"
        }
      ],
      "stateMutability": "view",
      "type": "function"
    },
    {
      "inputs": [
        {
          "internalType": "address",
          "name": "",
          "type": "address"
        }
      ],
      "name": "hasVoted",
      "outputs": [
        {
          "internalType": "bool",
          "name": "",
          "type": "bool"
        }
      ],
      "stateMutability": "view",
      "type": "function"
    },
    {
      "inputs": [
        {
          "internalType": "uint256",
          "name": "_candidateId",
          "type": "uint256"
        }
      ],
      "name": "vote",
      "outputs": [],
      "stateMutability": "nonpayable",
      "type": "function"
    }
  ],
  "bytecode": "0x6080604052348015600e575f5ffd5b506106338061001c5f395ff3fe608060405234801561000f575f5ffd5b5060043610610060575f3560e01c80630121b93f1461006457806309eef43e146100795780632d35a8a2146100b05780633477ee2e146100c7578063462e91ec146100e9578063ff981099146100fc575b5f5ffd5b61007761007236600461034c565b61011e565b005b61009b610087366004610363565b60016020525f908152604090205460ff1681565b60405190151581526020015b60405180910390f35b6100b960025481565b6040519081526020016100a7565b6100da6100d536600461034c565b61023e565b6040516100a793929190610390565b6100776100f73660046103e7565b6102e6565b6100b961010a36600461034c565b5f9081526020819052604090206002015490565b335f9081526001602052604090205460ff16156101735760405162461bcd60e51b815260206004820152600e60248201526d20b63932b0b23c903b37ba32b21760911b60448201526064015b60405180910390fd5b5f8111801561018457506002548111155b6101c75760405162461bcd60e51b8152602060048201526014602482015273125b9d985b1a590818d85b991a59185d1948125160621b604482015260640161016a565b5f8181526020819052604081206002018054916101e38361049a565b9091555050335f81815260016020818152604092839020805460ff1916909217909155815192835282018390527f4d99b957a2bc29a30ebd96a7be8e68fe50a3c701db28a91436490b7d53870ca4910160405180910390a150565b5f602081905290815260409020805460018201805491929161025f906104be565b80601f016020809104026020016040519081016040528092919081815260200182805461028b906104be565b80156102d65780601f106102ad576101008083540402835291602001916102d6565b820191905f5260205f20905b8154815290600101906020018083116102b957829003601f168201915b5050505050908060020154905083565b60028054905f6102f58361049a565b90915550506040805160608101825260025480825260208083018581525f84860181905292835290829052929020815181559151909190600182019061033b9082610542565b506040820151816002015590505050565b5f6020828403121561035c575f5ffd5b5035919050565b5f60208284031215610373575f5ffd5b81356001600160a01b0381168114610389575f5ffd5b9392505050565b838152606060208201525f83518060608401528060208601608085015e5f608082850101526080601f19601f830116840101915050826040830152949350505050565b634e487b7160e01b5f52604160045260245ffd5b5f602082840312156103f7575f5ffd5b813567ffffffffffffffff81111561040d575f5ffd5b8201601f8101841361041d575f5ffd5b803567ffffffffffffffff811115610437576104376103d3565b604051601f8201601f19908116603f0116810167ffffffffffffffff81118282101715610466576104666103d3565b60405281815282820160200186101561047d575f5ffd5b816020840160208301375f91810160200191909152949350505050565b5f600182016104b757634e487b7160e01b5f52601160045260245ffd5b5060010190565b600181811c908216806104d257607f821691505b6020821081036104f057634e487b7160e01b5f52602260045260245ffd5b50919050565b601f82111561053d57805f5260205f20601f840160051c8101602085101561051b5750805b601f840160051c820191505b8181101561053a575f8155600101610527565b50505b505050565b815167ffffffffffffffff81111561055c5761055c6103d3565b6105708161056a84546104be565b846104f6565b6020601f8211600181146105a2575f831561058b5750848201515b5f19600385901b1c1916600184901b17845561053a565b5f84815260208120601f198516915b828110156105d157878501518255602094850194600190920191016105b1565b50848210156105ee57868401515f19600387901b60f8161c191681555b50505050600190811b0190555056fea264697066735822122049eb3b4f0a671a3610893d0f93b673ca781076d1b59cd60534644c3ed2b6c93864736f6c634300081c0033",
  "linkReferences": {},
  "deployedLinkReferences": {},
  "immutableReferences": {},
  "inputSourceName": "project/contracts/Voting.sol",
  "buildInfoId": "solc-0_8_28-000b858b0fa7dbe4b74eaa0a28145e3e73ec20a3"
}